{
  "contractName": "Contest",
  "abi": [
    {
      "constant": true,
      "inputs": [
        {
          "name": "",
          "type": "address"
        }
      ],
      "name": "voters",
      "outputs": [
        {
          "name": "",
          "type": "bool"
        },
        {
          "name": "name",
          "type": "string"
        },
        {
          "name": "voteCount",
          "type": "uint256"
        }
      ],
      "payable": false,
      "stateMutability": "view",
      "type": "function"
    },
    {
      "inputs": [
        {
          "name": "",
          "type": "uint256"
        }
      ],
      "payable": false,
      "stateMutability": "view",
      "type": "function",
      "constant": true,
      "name": "contestants",
      "outputs": [
        {
          "name": "id",
          "type": "uint256"
        },
        {
          "name": "name",
          "type": "string"
        },
        {
          "name": "voteCount",
          "type": "uint256"
        }
      ]
    },
    {
      "inputs": [],
      "payable": false,
      "stateMutability": "view",
      "type": "function",
      "constant": true,
      "name": "contestantsCount",
      "outputs": [
        {
          "name": "",
          "type": "uint256"
        }
      ]
    },
    {
      "inputs": [],
      "payable": false,
      "stateMutability": "nonpayable",
      "type": "constructor"
    },
    {
      "constant": false,
      "inputs": [
        {
          "name": "_contestantId",
          "type": "uint256",
          "indexed": true
        }
      ],
      "name": "votedEvent",
      "outputs": [],
      "payable": false,
      "stateMutability": "nonpayable",
      "type": "event",
      "anonymous": false
    },
    {
      "constant": false,
      "inputs": [
        {
          "name": "_contestantId",
          "type": "uint256"
        }
      ],
      "name": "vote",
      "outputs": [],
      "payable": false,
      "stateMutability": "nonpayable",
      "type": "function"
    }
  ],
  "bytecode": "0x608060405234801561001057600080fd5b5061005e6040805190810160405280600381526020017f546f6d00000000000000000000000000000000000000000000000000000000008152506100b0640100000000026401000000009004565b6100ab6040805190810160405280600581526020017f4a657272790000000000000000000000000000000000000000000000000000008152506100b0640100000000026401000000009004565b6101d1565b60026000815480929190600101919050555060606040519081016040528060025481526020018281526020016000815250600080600254815260200190815260200160002060008201518160000155602082015181600101908051906020019061011b92919061012c565b506040820151816002015590505050565b828054600181600116156101000203166002900490600052602060002090601f016020900481019282601f1061016d57805160ff191683800117855561019b565b8280016001018555821561019b579182015b8281111561019a57825182559160200191906001019061017f565b5b5090506101a891906101ac565b5090565b6101ce91905b808211156101ca5760008160009055506001016101b2565b5090565b90565b61042e806101e06000396000f3fe608060405260043610610062576000357c0100000000000000000000000000000000000000000000000000000000900463ffffffff1680630121b93f14610067578063a3ec138d146100a2578063dfd50f521461010b578063ec63d1c8146101cd575b600080fd5b34801561007357600080fd5b506100a06004803603602081101561008a57600080fd5b81019080803590602001909291905050506101f8565b005b3480156100ae57600080fd5b506100f1600480360360208110156100c557600080fd5b81019080803573ffffffffffffffffffffffffffffffffffffffff16906020019092919050505061031a565b604051808215151515815260200191505060405180910390f35b34801561011757600080fd5b506101446004803603602081101561012e57600080fd5b810190808035906020019092919050505061033a565b6040518084815260200180602001838152602001828103825284818151815260200191508051906020019080838360005b83811015610190578082015181840152602081019050610175565b50505050905090810190601f1680156101bd5780820380516001836020036101000a031916815260200191505b5094505050505060405180910390f35b3480156101d957600080fd5b506101e26103fc565b6040518082815260200191505060405180910390f35b600160003373ffffffffffffffffffffffffffffffffffffffff1673ffffffffffffffffffffffffffffffffffffffff16815260200190815260200160002060009054906101000a900460ff1615151561025157600080fd5b60008111801561026357506002548111155b151561026e57600080fd5b6000808281526020019081526020016000206002016000815480929190600101919050555060018060003373ffffffffffffffffffffffffffffffffffffffff1673ffffffffffffffffffffffffffffffffffffffff16815260200190815260200160002060006101000a81548160ff021916908315150217905550807ffff3c900d938d21d0990d786e819f29b8d05c1ef587b462b939609625b684b1660405160405180910390a250565b60016020528060005260406000206000915054906101000a900460ff1681565b6000602052806000526040600020600091509050806000015490806001018054600181600116156101000203166002900480601f0160208091040260200160405190810160405280929190818152602001828054600181600116156101000203166002900480156103ec5780601f106103c1576101008083540402835291602001916103ec565b820191906000526020600020905b8154815290600101906020018083116103cf57829003601f168201915b5050505050908060020154905083565b6002548156fea165627a7a723058208cea1dd22e1a291e0e39b9635fafbc9a521845fa8998becdc65c1ce15d178d0a0029",
  "source": "pragma solidity 0.5.0;\r\n\r\n//creating the contract\r\ncontract Contest {    \r\n    //Create the structure\r\n    struct Contestant {\r\n        uint id;\r\n        string name;\r\n        uint voteCount;\r\n    }\r\n    //use mapping to get or fetch the contestant details\r\n    mapping(uint => Contestant) public contestants;\r\n\r\n    //add to public list of users/accounts who already casted vote\r\n    mapping(address => bool) public voters;\r\n    \r\n\r\n    //add a public state varibale to keep track of contestant count\r\n    uint public contestantsCount;\r\n\r\n    event votedEvent(uint indexed _contestantId);\r\n\r\n    //create constructor\r\n    constructor() public{\r\n        addContestant(\"Tom\");\r\n        addContestant(\"Jerry\");\r\n    }\r\n\r\n    //add a function to add contestant\r\n    function addContestant(string memory _name) private {\r\n        contestantsCount++;\r\n        contestants[contestantsCount] = Contestant(contestantsCount, _name, 0);\r\n    }\r\n\r\n    function vote(uint _contestantId) public {\r\n        //restring the person who already casted the vote\r\n        require(!voters[msg.sender]);\r\n\r\n        //require that the vote is casted to a valid contestent\r\n        require(_contestantId > 0 && _contestantId <= contestantsCount);\r\n\r\n        //increase the contestant vote count\r\n        contestants[_contestantId].voteCount++;\r\n        //set the voter's voted status to true\r\n        voters[msg.sender] = true;\r\n\r\n        //trigger the vote event\r\n        emit votedEvent(_contestantId);\r\n    }\r\n}",
  "sourcePath": "D:/js_work/block_chain/bc_ethereum/contracts/Contest.sol",
  "compiler": {
    "name": "solc",
    "version": "0.5.0+commit.1d4f565a.Emscripten.clang"
  },
  "schemaVersion": "3.0.9",
  "updatedAt": "2019-05-12T09:15:48.678Z",
  "devdoc": {
    "methods": {}
  },
  "userdoc": {
    "methods": {}
  }
}